S01B000074656D706572617475726169646F6461746B692E7372656316
S11300000C942A000C9447000C9447000C9447006D
S11300100C9447000C9447000C9447000C94470040
S11300200C9447000C9447000C9447000C94470030
S11300300C9447000C9447000C9447000C94470020
S11300400C9447000C9447000C9447000C94470010
S11300500C94470011241FBECFE5D4E0DEBFCDBF12
S113006010E0A0E6B0E0ECE1F2E102C005900D92F0
S1130070A43CB107D9F720E0A4ECB0E001C01D9284
S1130080A53FB207E1F70E944A020C940C090C94B4
S113009000009798879B18C08F9A86EA8A95F1F793
S11300A000C08F9887E18A95F1F70000879906C010
S11300B086EA8A95F1F700C081E0089586EA8A9578
S11300C0F1F700C080E0089580E00895979898E0E3
S11300D08F9A80FF0AC022E02A95F1F700008F98DA
S11300E027E12A95F1F7000009C027E12A95F1F7E5
S11300F000008F9822E02A95F1F700008695915030
S113010039F708950E944900882339F08CEC0E9445
S1130110660084E40E9466008FEF08958F9898E04B
S113012080E08F9A22E02A95F1F700008F9822E070
S11301302A95F1F7000086958799806827E12A952A
S1130140F1F70000915069F708950F931F93CF932F
S1130150DF938C010E944900882391F08CEC0E946B
S113016066008EEB0E946600E801075F1F4F0E9445
S11301708E008993C017D107D1F781E090E002C0C7
S113018080E090E0DF91CF911F910F910895662355
S113019011F0AA9A01C0AA98882314F4AF9A01C056
S11301A0AF9886FF02C0AE9A01C0AE9885FF02C028
S11301B0AD9A01C0AD9884FF02C0AC9A01C0AC985E
S11301C00000AB9A0000AB9883FF02C0AF9A01C055
S11301D0AF9882FF02C0AE9A01C0AE9881FF02C000
S11301E0AD9A01C0AD9880FF02C0AC9A01C0AC9832
S11301F00000AB9A0000AB98AF9AAE9AAD9AAC9A55
S1130200611109C0843038F489E991E00197F1F76C
S113021000C0000008959DE09A95F1F7000008954C
S113022060E00E94C700089580580E94100108955C
S113023081E00E941001089582E00E941001089557
S113024061E00E94C7000895CF93DF93EC012196EB
S1130250FC018081882329F00E9420018991811169
S1130260FBCFDF91CF910895A39AA29AA79AA69A59
S1130270A59AA49AAB98AA98AF9AAE9AAD9AAC9A5A
S113028089EF90E00197F1F700C00000AF98AE98B5
S11302900000AB9A0000AB9880E094E00197F1F77E
S11302A000C00000AB9A0000AB9891E29A95F1F778
S11302B00000AB9A0000AB988DE08A95F1F700003E
S11302C0AC980000AB9A0000AB989DE09A95F1F7CA
S11302D00000AC980000AB9A0000AB980000AF9A05
S11302E00000AB9A0000AB988DE08A95F1F700000E
S11302F088E00E9410010E94180186E00E9410010B
S11303008CE00E94100108955D9BFECF8CB980E0C3
S113031090E0089590BD89B988E08AB986E880BDE7
S1130320089586B380FF06C081FF06C082FF06C021
S113033084E0089581E0089582E0089583E00895BB
S11303408531910509F46CC09C0123513109223097
S1130350310508F467C0235031092230310508F40F
S113036063C0833191056CF523E130E0A901481B9A
S1130370590BBA0112F46F5F7F4F7595679564301E
S1130380710514F063E070E016161706BCF46B5F99
S11303907F4F25E030E080E190E0E1E0F0E0AF0164
S11303A0022E02C0440F551F0A94E2F7842B952BAA
S11303B02F5F3F4F6217730791F7089580E190E034
S11303C008958831910594F145979C0112F42F5FAB
S11303D03F4FC901959587958430910514F083E0CA
S11303E090E018161906CCF462E070E0681B790BF3
S11303F022E030E088E090E0E1E0F0E0AF01022E9E
S113040002C0440F551F0A94E2F7842B952B215008
S113041031096217730791F7089588E090E0089511
S113042088E1089580E1089588E0089580E00895C2
S113043020916F0030E0821793072CF480936F00B3
S113044060936E000BC02817390741F480916E0049
S113045090E06817790714F460936E0080916E0041
S113046008952091C90030E0281739072CF48093AF
S1130470C9006093C8000BC02817390741F4809164
S1130480C80090E08617970714F46093C800809121
S1130490C8000895CF93DF93CDB7DEB729970FB681
S11304A0F894DEBF0FBECDBF8FEF8ABB17BA87E0CB
S11304B088BB81E084BB89E190E00E948A0180E6E8
S11304C090E09093F2008093F1000E9434010E9426
S11304D01C010E9418016894AA24A2F8BB24B394B6
S11304E00F2EF2E7EF2EF0E0FF2EF02D0CED10E0D2
S11304F00F2EF8E7CF2EF0E0DF2EF02D0E948200C1
S1130500892BE9F187EA91E60197F1F700C0000031
S1130510CE0101960E94A5006A8170E0762F6627BD
S11305208981680F711D072E000C880B990B0E949E
S1130530130520E030E040E85DE30E949F052B01B5
S11305403C010E94DB047093EE006093ED00072EE3
S1130550000C880B990B0E9413059B01AC01C3018D
S1130560B2010E946E0420E030E040E251E40E94B7
S11305709F050E94DB047093CB006093CA00B09B7C
S113058004C0B19B02C0B2992AC00E949101809319
S11305907000813081F480917100843019F4B0923C
S11305A0710003C08F5F809371008FE493EC019717
S11305B0F1F700C0000080917000833081F48091D5
S11305C07100813019F4A092710003C081508093AE
S11305D071008FE493EC0197F1F700C00000809163
S11305E07100823009F452C018F4813041F05FC1C7
S11305F0833009F4C3C0843009F40DC158C180911B
S1130600CB008F938091CA008F938091EE008F93DB
S11306108091ED008F93FF92EF921F930F930E94AE
S113062022060FB6F894DEBF0FBECDBF8091C60080
S11306309091C700059771F41F930F93DF92CF92A7
S11306400E940C061092C7001092C6000F900F90E3
S11306500F900F908091C6009091C70001969093DF
S1130660C7008093C6000E941C010E9418018CE7F9
S113067090E00E94240180E40E9414018DEA90E03D
S11306800E942401C8010E94240111C18091CB0061
S11306908F938091CA008F938091EE008F93809105
S11306A0ED008F93FF92EF921F930F930E94220607
S11306B00FB6F894DEBF0FBECDBF8091C6009091F7
S11306C0C700059771F41F930F93DF92CF920E9496
S11306D00C061092C7001092C6000F900F900F9056
S11306E00F908091C6009091C70001969093C70027
S11306F08093C6000E9418011092C5000E949101C7
S113070080937000982F9D7F913011F4B092C500B2
S1130710823081F48091C400813019F41092C400B5
S113072003C08F5F8093C4008FE493EC0197F1F7CB
S113073000C000008091C400813081F40E9418013F
S11307400E941C018DE890E00E94240180E40E9434
S1130750140184E990E00E942401A9C00E941801B8
S11307600E941C018DE890E00E94240180E40E9414
S1130770140187E990E00E94240199C06091CA00A5
S11307807091CB008091ED009091EE000E943102B7
S11307908091C8001F928F938091C9001F928F93FC
S11307A0FF92EF921F930F930E9422060FB6F894C4
S11307B0DEBF0FBECDBF8091C6009091C7000597E4
S11307C071F41F930F93DF92CF920E940C06109244
S11307D0C7001092C6000F900F900F900F90809159
S11307E0C6009091C70001969093C7008093C600FD
S11307F00E9418010E941C018BE990E00E942401D0
S113080080E40E9414018BEA90E00E942401C80154
S11308100E9424014CC06091CA007091CB00809169
S1130820ED009091EE000E94180280916E001F92DC
S11308308F9380916F001F928F93FF92EF921F937B
S11308400F930E9422060FB6F894DEBF0FBECDBFF1
S11308508091C6009091C700059771F41F930F9380
S1130860DF92CF920E940C061092C7001092C6002D
S11308700F900F900F900F908091C6009091C70039
S113088001969093C7008093C6000E9418010E94AD
S11308901C0184EB90E00E94240180E40E94140176
S11308A08BEA90E00E942401C8010E9424018091F7
S11308B0C400813049F48091ED009091EE000C97D2
S11308C0419710F0A89A01C0A898C301B2010E94F0
S11308D0DB04CB010E94A0018BBB10CE5058BB2778
S11308E0AA270E9486040C9465050E94570538F0D7
S11308F00E945E0520F039F49F3F19F426F40C940D
S113090054050EF4E095E7FB0C944E05E92F0E9484
S1130910760558F3BA17620773078407950720F022
S113092079F4A6F50C9498050EF4E0950B2EBA2FE5
S1130930A02D0B01B90190010C01CA01A0011124E1
S1130940FF27591B99F0593F50F4503E68F11A168D
S1130950F040A22F232F342F4427585FF3CF46951E
S113096037952795A795F0405395C9F77EF41F1640
S1130970BA0B620B730B840BBAF09150A1F0FF0F0A
S1130980BB1F661F771F881FC2F70EC0BA0F621FF6
S1130990731F841F48F4879577956795B795F795E6
S11309A09E3F08F0B0CF9395880F08F09927EE0F7B
S11309B09795879508950E94E2046894B1110C9468
S11309C0990508950E947E0588F09F5798F0B92FE5
S11309D09927B751B0F0E1F0660F771F881F991F70
S11309E01AF0BA95C9F714C0B13091F00E94980575
S11309F0B1E008950C949805672F782F8827B85F85
S1130A0039F0B93FCCF3869577956795B395D9F7C7
S1130A103EF490958095709561957F4F8F4F9F4FD1
S1130A200895E89409C097FB3EF4909580957095DD
S1130A3061957F4F8F4F9F4F9923A9F0F92F96E926
S1130A40BB279395F695879577956795B795F1119B
S1130A50F8CFFAF4BB0F11F460FF1BC06F5F7F4F38
S1130A608F4F9F4F16C0882311F096E911C077234A
S1130A7021F09EE8872F762F05C0662371F096E853
S1130A80862F70E060E02AF09A95660F771F881F22
S1130A90DAF7880F9695879597F9089597F99F67E0
S1130AA080E870E060E008959FEF80EC08950024F2
S1130AB00A941616170618060906089500240A94BF
S1130AC012161306140605060895092E0394000C45
S1130AD011F4882352F0BB0F40F4BF2B11F460FFD4
S1130AE004C06F5F7F4F8F4F9F4F089557FD9058FD
S1130AF0440F551F59F05F3F71F04795880F97FBDE
S1130B00991F61F09F3F79F0879508951216130697
S1130B101406551FF2CF4695F1DF08C016161706C6
S1130B201806991FF1CF86957105610508940895FB
S1130B30E894BB2766277727CB0197F908950E948D
S1130B40B2050C9465050E94570538F00E945E05B5
S1130B5020F0952311F00C944E050C9454051124A7
S1130B600C9499050E94760570F3959FC1F3950F37
S1130B7050E0551F629FF001729FBB27F00DB11D1D
S1130B80639FAA27F00DB11DAA1F649F6627B00DAD
S1130B90A11D661F829F2227B00DA11D621F739F96
S1130BA0B00DA11D621F839FA00D611D221F749FA4
S1130BB03327A00D611D231F849F600D211D822FEB
S1130BC0762F6A2F11249F5750409AF0F1F0882312
S1130BD04AF0EE0FFF1FBB1F661F771F881F91503F
S1130BE05040A9F79E3F510580F00C944E050C949B
S1130BF099055F3FE4F3983ED4F38695779567951E
S1130C00B795F795E7959F5FC1F7FE2B880F911D68
S1130C109695879597F90895A0E0B0E0E2E1F6E0B3
S1130C200C94E508AE014B5F5F4FFA01619171913D
S1130C30AF018091F1009091F2000E944406E2E03D
S1130C400C940109AEE0B0E0E8E2F6E00C94E308AD
S1130C500D891E8986E08C831A8309838FEF9FE7B1
S1130C609E838D83AE01475E5F4F6F89788DCE0181
S1130C7001960E944406EF81F885E00FF11F10826F
S1130C802E96E4E00C94FF08ABE0B0E0EAE4F6E072
S1130C900C94D5086C017B018A01FC011782168231
S1130CA0838181FFCCC1CE0101963C01F601938181
S1130CB0F70193FD859193FF81917F01882309F4C6
S1130CC0BAC1853239F493FD859193FF81917F01F7
S1130CD0853229F4B60190E00E943B08E7CF912CBD
S1130CE0212C312CFFE1F315D8F08B3279F038F454
S1130CF0803279F08332A1F4232D20611DC08D321E
S1130D0061F0803369F4232D216016C0832D826045
S1130D10382EE32DE4603E2E2AC0F32DF8601DC06A
S1130D2037FC2DC020ED280F2A3040F08E32B9F464
S1130D3036FC81C1232D2064322E19C036FE06C034
S1130D408AE0989E200D1124922E11C0EAE02E9E76
S1130D50200D1124222EF32DF0623F2E08C08C3674
S1130D6021F4832D8068382E02C0883641F4F701BF
S1130D7093FD859193FF81917F018111B3CF982FCA
S1130D809F7D9554933028F40C5F1F4F9FE3998304
S1130D900DC0833631F0833771F0833509F059C0C3
S1130DA021C0F801808189830E5F1F4F88248394BA
S1130DB0912C530113C02801F2E04F0E511CF8018D
S1130DC0A080B18036FE03C0692D70E002C06FEFD1
S1130DD07FEFC5010E9430084C018201F32DFF779B
S1130DE03F2E16C0280122E0420E511CF801A080BB
S1130DF0B18036FE03C0692D70E002C06FEF7FEF53
S1130E00C5010E9425084C01F32DF0683F2E820194
S1130E1033FC1BC0822D90E088169906B0F4B6010D
S1130E2080E290E00E943B082A94F4CFF50137FC5D
S1130E30859137FE81915F01B60190E00E943B08E5
S1130E4021102A9421E0821A91088114910471F7E7
S1130E50E8C0843611F0893641F5F80137FE07C041
S1130E6060817181828193810C5F1F4F08C0608112
S1130E707181072E000C880B990B0E5F1F4FF32D09
S1130E80FF763F2E97FF09C09095809570956195E8
S1130E907F4F8F4F9F4FF0683F2E2AE030E0A30131
S1130EA00E947708882E861845C0853731F4232D93
S1130EB02F7EB22E2AE030E025C0932D997FB92EE3
S1130EC08F36C1F018F4883579F0B5C0803719F041
S1130ED0883721F0B0C0E92FE061BE2EB4FE0DC00A
S1130EE0FB2DF460BF2E09C034FE0AC0292F2660F2
S1130EF0B22E06C028E030E005C020E130E002C098
S1130F0020E132E0F801B7FE07C06081718182817F
S1130F1093810C5F1F4F06C06081718180E090E077
S1130F200E5F1F4FA3010E947708882E8618FB2DA1
S1130F30FF773F2E36FE0DC0232D2E7FA22E89145F
S1130F4058F434FE0BC032FC09C0832D8E7EA82ECB
S1130F5005C0B82CA32C03C0B82C01C0B92CA4FE26
S1130F600FC0FE01E80DF11D8081803321F49A2D1C
S1130F70997EA92E09C0A2FE06C0B394B39404C0FE
S1130F808A2D867809F0B394A3FC11C0A0FE06C094
S1130F90B21488F4280C922C9B180EC0B21460F47E
S1130FA0B60180E290E00E943B08B394F7CFB214FC
S1130FB018F42B1802C0982C212CA4FE10C0B601E2
S1130FC080E390E00E943B08A2FE17C0A1FC03C08E
S1130FD088E790E002C088E590E0B6010CC08A2D55
S1130FE0867859F0A1FE02C08BE201C080E2A7FC22
S1130FF08DE2B60190E00E943B08891438F4B601F2
S113100080E390E00E943B089A94F7CF8A94F3011E
S1131010E80DF11D8081B60190E00E943B0881102B
S1131020F5CF222009F442CEB60180E290E00E947E
S11310303B082A94F6CFF6018681978102C08FEF90
S11310409FEF2B96E2E10C94F108FC0105906150AE
S113105070400110D8F7809590958E0F9F1F0895CA
S1131060FC016150704001900110D8F78095909573
S11310708E0F9F1F08950F931F93CF93DF93FB0150
S1131080238121FD03C08FEF9FEF2CC022FF16C0E8
S113109046815781248135814217530744F4A08146
S11310A0B1819D012F5F3F4F318320838C93268133
S11310B037812F5F3F4F3783268314C08B01EC01A8
S11310C0FB010084F185E02D0995892BE1F6D80117
S11310D016968D919C911797019617969C938E93D3
S11310E01697CE01DF91CF911F910F910895FA01C8
S11310F0AA27283051F1203181F1E8946F936E7F53
S11311006E5F7F4F8F4F9F4FAF4FB1E03ED0B4E043
S11311103CD0670F781F891F9A1FA11D680F791F84
S11311208A1F911DA11D6A0F711D811D911DA11D95
S113113020D009F468943F912AE0269F11243019A5
S1131140305D3193DEF6CF010895462F4770405D40
S11311504193B3E00FD0C9F7F6CF462F4F70405DEF
S11311604A3318F0495D31FD4052419302D0A9F74A
S1131170EACFB4E0A6959795879577956795BA9544
S1131180C9F700976105710508959B01AC010A2E0A
S113119006945795479537952795BA95C9F7620FE1
S11311A0731F841F951FA01D08952F923F924F9285
S11311B05F926F927F928F929F92AF92BF92CF92E3
S11311C0DF92EF92FF920F931F93CF93DF93CDB7EC
S11311D0DEB7CA1BDB0B0FB6F894DEBF0FBECDBF64
S11311E009942A88398848885F846E847D848C8435
S11311F09B84AA84B984C884DF80EE80FD800C813E
S11312001B81AA81B981CE0FD11D0FB6F894DEBF20
S10F12100FBECDBFED010895F894FFCF90
S113121C0000000200000000840100000000D0C89F
S113122C010125642E25640025730D002020205413
S113123C65726D6F6D657472202020200042555AC2
S113124C5A4552004F4E004F4646004E616A77791C
S113125C7A737A612074656D703A00202020202006
S113126C202020004E616A6E697A737A612074655D
S107127C6D703A0053
S9030000FC
