S01F00004D6965726E696B53776961746C6F4E6174657A656E69652E73726563B0
S11300000C94A7000C94C4000C94C4000C94C40079
S11300100C94C4000C94C4000C94C4000C94C4004C
S11300200C94C4000C94C4000C94C4000C94C4003C
S11300300C94C4000C94C4000C94C4000C94C4002C
S11300400C94C4000C94C4000C94C4000C94C4001C
S11300500C94C40000407A10F35A00A0724E1809A0
S11300600010A5D4E80000E87648170000E40B541B
S1130070020000CA9A3B000000E1F50500008096EA
S11300809800000040420F000000A086010000001C
S1130090102700000000E8030000000064000000D6
S11300A000000A00000000000100000000002C769F
S11300B0D888DC674F0823DFC1DFAE59E1B1B796BA
S11300C0E5E3E453C63AE651997696E8E6C2842617
S11300D0EB898C9B62ED407C6FFCEFBC9C9F40F2F3
S11300E0BAA56FA5F490055A2AF75C936B6CF9676F
S11300F06DC11BFCE0E40D47FEF520E6B500D0ED34
S1130100902E0300943577050080841E080000209B
S11301104E0A000000C80C333333330F986E128339
S11301201141EF8D2114893BE65516CFFEE6DB180D
S1130130D1844B381BF77C1D901DA4BBE4242032D2
S113014084725E228100C9F124ECA1E53D271124CB
S11301501FBECFE5D8E0DEBFCDBF10E0A0E6B0E023
S1130160ECE7F4E102C005900D92A43DB107D9F784
S113017020E0A4EDB0E001C01D92AA3DB207E1F772
S11301800E94A5010C943C0A0C9400005D9BFECFD8
S11301908CB980E090E0089590BD89B988E08AB96F
S11301A086E880BD089517B816B83E9A87B187B916
S11301B086B1816886B9369A84B195B1089517B825
S11301C016B83E9A389A86B1816886B9369A84B14F
S11301D095B1089517B816B83E9A399A86B18168D0
S11301E086B9369A84B195B1089517B816B83E9A6F
S11301F087B1836087B986B1816886B9369A84B13C
S113020095B108954F925F926F927F928F929F92D1
S1130210AF92BF92CF92DF92EF92FF920F931F9310
S1130220CF93DF93CDB7DEB727970FB6F894DEBF31
S11302300FBECDBF4B015C019B01AC0160E070E4DB
S11302408EEC94E40E942A0320E030E04AEF53E469
S11302500E94BD0220E030E040E251E40E942A0303
S11302600E949C032B013C0120E030E040E251E479
S1130270C501B4010E9460046B017C01A5019401D5
S113028063E373E383E590E40E94BD029B01AC0148
S1130290C701B6010E942A039E012F5F3F4F7901D7
S11302A0890121E044E00E94DC04FF92EF920E9465
S11302B0FC048EE690E09F938F930E94FC0423E05D
S11302C046E0C501B4010E94DC04FF92EF920E9453
S11302D0FC0488E790E09F938F930E94FC04B20192
S11302E0052C000C880B990B0E94D40320E046E0F7
S11302F00E94DC04FF92EF920E94FC0483E890E0E9
S11303009F938F930E94FC0488E890E00E9412055A
S11303100FB6F894DEBF0FBECDBFC20127960FB64D
S1130320F894DEBF0FBECDBFDF91CF911F910F9127
S1130330FF90EF90DF90CF90BF90AF909F908F9001
S11303407F906F905F904F90089585E090E00E94B9
S1130350CC0080E690E09093D7008093D60083EDA4
S113036090E30197F1F700C000001ABA83ED90E31F
S11303700197F1F700C0000083ED90E30197F1F7D6
S113038000C00000A12CB12CE12CF12C0F2EFAE8B6
S11303908F2EF0E09F2EF02D0F2EF1E96F2EF0E05E
S11303A07F2EF02D0F2EF8E94F2EF0E05F2EF02D6A
S11303B00F2EFFE92F2EF0E03F2EF02D0F2EFBEB3A
S11303C0CF2EF0E0DF2EF02D0E94D300EC019F929F
S11303D08F920E94FC04BE0180E090E00E94D20350
S11303E026E636E24BE953E40E942A030E94020106
S11303F0082F192F83ED90E30197F1F700C0000057
S11304000E94DF00EC017F926F920E94FC04BE0107
S113041080E090E00E94D20326E636E24BE953E402
S11304200E942A030E940201C02FD12F0F900F9027
S11304300F900F90C817D9070CF4EC0183ED90E3EB
S11304400197F1F700C000000E94EA008C015F925E
S11304504F920E94FC04B80180E090E00E94D20315
S113046026E636E24BE953E40E942A030E94020185
S11304708C010F900F908C179D070CF48E0183ED67
S113048090E30197F1F700C000000E94F500EC0131
S11304903F922F920E94FC04BE0180E090E00E94F3
S11304A0D20326E636E24BE953E40E942A030E9473
S11304B00201EC010F900F90801791070CF4E801F2
S11304C083ED90E30197F1F700C0000086EA90E025
S11304D09F938F930E94FC04DF93CF93DF92CF927C
S11304E00E94FC04AC0EBD1E2FEFE21AF20A0F901C
S11304F00F900F900F900F900F908AE0E816F10480
S113050051F58EEB90E09F938F930E94FC0495012C
S1130510ADECBCEC0E94CD04969587959695879595
S1130520969587959F938F93DF92CF920E94FC04B8
S11305308FE891E426E0815090402040E1F700C02C
S113054000000F900F900F900F900F900F90A12C20
S1130550B12CE12CF12C88E890E00E94120588E887
S113056090E00E9412058FE691E121E081509040D5
S11305702040E1F700C0000027CF5058BB27AA272E
S11305800E94D5020C9426040E94180438F00E949C
S11305901F0420F039F49F3F19F426F40C94150439
S11305A00EF4E095E7FB0C940F04E92F0E94370446
S11305B058F3BA17620773078407950720F079F494
S11305C0A6F50C9459040EF4E0950B2EBA2FA02D29
S11305D00B01B90190010C01CA01A0011124FF27EC
S11305E0591B99F0593F50F4503E68F11A16F040E7
S11305F0A22F232F342F4427585FF3CF46953795E6
S11306002795A795F0405395C9F77EF41F16BA0BAA
S1130610620B730B840BBAF09150A1F0FF0FBB1F58
S1130620661F771F881FC2F70EC0BA0F621F731FA1
S1130630841F48F4879577956795B795F7959E3FFE
S113064008F0B0CF9395880F08F09927EE0F97958F
S1130650879508950E943E030C9426040E941F046B
S113066058F00E94180440F029F45F3F29F00C94DC
S11306700F0451110C945A040C9415040E9437046D
S113068068F39923B1F3552391F3951B550BBB27BD
S1130690AA2762177307840738F09F5F5F4F220F02
S11306A0331F441FAA1FA9F335D00E2E3AF0E0E8F9
S11306B032D091505040E695001CCAF72BD0FE2F43
S11306C029D0660F771F881FBB1F261737074807D7
S11306D0AB07B0E809F0BB0B802DBF01FF2793588F
S11306E05F4F3AF09E3F510578F00C940F040C9440
S11306F05A045F3FE4F3983ED4F386957795679563
S1130700B795F7959F5FC9F7880F911D96958795C3
S113071097F90895E1E0660F771F881FBB1F6217E2
S113072073078407BA0720F0621B730B840BBA0BA0
S1130730EE1F88F7E09508950E94A3036894B11111
S11307400C945A0408950E943F0488F09F5798F02F
S1130750B92F9927B751B0F0E1F0660F771F881FC2
S1130760991F1AF0BA95C9F714C0B13091F00E94DC
S11307705904B1E008950C945904672F782F882701
S1130780B85F39F0B93FCCF3869577956795B39503
S1130790D9F73EF490958095709561957F4F8F4F72
S11307A09F4F0895E89409C097FB3EF49095809577
S11307B0709561957F4F8F4F9F4F9923A9F0F92F23
S11307C096E9BB279395F695879577956795B795A1
S11307D0F111F8CFFAF4BB0F11F460FF1BC06F5F87
S11307E07F4F8F4F9F4F16C0882311F096E911C099
S11307F0772321F09EE8872F762F05C0662371F0BA
S113080096E8862F70E060E02AF09A95660F771FCD
S1130810881FDAF7880F9695879597F9089597F9C1
S11308209F6780E870E060E008959FEF80EC089592
S113083000240A94161617061806090608950024BB
S11308400A9412161306140605060895092E039435
S1130850000C11F4882352F0BB0F40F4BF2B11F4A9
S113086060FF04C06F5F7F4F8F4F9F4F089557FD08
S11308709058440F551F59F05F3F71F04795880F0A
S113088097FB991F61F09F3F79F0879508951216A1
S113089013061406551FF2CF4695F1DF08C016164D
S11308A017061806991FF1CF8695710561050894FE
S11308B00895E894BB2766277727CB0197F9089515
S11308C00E9473040C9426040E94180438F00E94B9
S11308D01F0420F0952311F00C940F040C941504BC
S11308E011240C945A040E94370470F3959FC1F3A9
S11308F0950F50E0551F629FF001729FBB27F00DCA
S1130900B11D639FAA27F00DB11DAA1F649F66271E
S1130910B00DA11D661F829F2227B00DA11D621F6D
S1130920739FB00DA11D621F839FA00D611D221F27
S1130930749F3327A00D611D231F849F600D211D0B
S1130940822F762F6A2F11249F5750409AF0F1F08E
S113095088234AF0EE0FFF1FBB1F661F771F881FF7
S113096091505040A9F79E3F510580F00C940F041C
S11309700C945A045F3FE4F3983ED4F3869577953C
S11309806795B795F795E7959F5FC1F7FE2B880F9D
S1130990911D9695879597F90895A29FB001B39FED
S11309A0C001A39F700D811D1124911DB29F700D74
S11309B0811D1124911D0895EF920F931F93CF93DE
S11309C0DF93E80147FD02C034E001C034E1042EA6
S11309D0000C550B57FF03C0519541955109E32E67
S11309E0022F242FAE010E942307CE01DF91CF9165
S11309F01F910F91EF900895A0E0B0E0E2E0F5E0E0
S1130A000C94150AAE014B5F5F4FFA01619171912D
S1130A10AF018091D6009091D7000E944205E2E098
S1130A200C94310A0F931F93CF93DF93E091D60078
S1130A30F091D700238121FF1BC08C01D0E0C0E0DE
S1130A40F80181918F016091D6007091D700DB018C
S1130A501896ED91FC911997882331F00995892B0B
S1130A6079F3DFEFCFEFECCF8AE00995892B19F00A
S1130A708FEF9FEF02C08D2F9C2FDF91CF911F919D
S1130A800F910895ABE0B0E0E8E4F5E00C94050ABA
S1130A906C017B018A01FC0117821682838181FF2C
S1130AA0CCC1CE0101963C01F6019381F70193FD7F
S1130AB0859193FF81917F01882309F4BAC185321E
S1130AC039F493FD859193FF81917F01853229F457
S1130AD0B60190E00E946B09E7CF912C212C312CB8
S1130AE0FFE1F315D8F08B3279F038F4803279F0E5
S1130AF08332A1F4232D20611DC08D3261F0803337
S1130B0069F4232D216016C0832D8260382EE32DD5
S1130B10E4603E2E2AC0F32DF8601DC037FC2DC0C2
S1130B2020ED280F2A3040F08E32B9F436FC81C112
S1130B30232D2064322E19C036FE06C08AE0989E0A
S1130B40200D1124922E11C0EAE02E9E200D1124B6
S1130B50222EF32DF0623F2E08C08C3621F4832D13
S1130B608068382E02C0883641F4F70193FD8591E0
S1130B7093FF81917F018111B3CF982F9F7D95546D
S1130B80933028F40C5F1F4F9FE399830DC0833685
S1130B9031F0833771F0833509F059C021C0F80171
S1130BA0808189830E5F1F4F88248394912C530185
S1130BB013C02801F2E04F0E511CF801A080B1804F
S1130BC036FE03C0692D70E002C06FEF7FEFC501F0
S1130BD00E9460094C018201F32DFF773F2E16C05D
S1130BE0280122E0420E511CF801A080B18036FE9B
S1130BF003C0692D70E002C06FEF7FEFC5010E9452
S1130C0055094C01F32DF0683F2E820133FC1BC0C3
S1130C10822D90E088169906B0F4B60180E290E047
S1130C200E946B092A94F4CFF50137FC859137FEB5
S1130C3081915F01B60190E00E946B0921102A9412
S1130C4021E0821A91088114910471F7E8C0843676
S1130C5011F0893641F5F80137FE07C060817181D2
S1130C60828193810C5F1F4F08C060817181072EC0
S1130C70000C880B990B0E5F1F4FF32DFF763F2E50
S1130C8097FF09C090958095709561957F4F8F4F20
S1130C909F4FF0683F2E2AE030E0A3010E94A7098D
S1130CA0882E861845C0853731F4232D2F7EB22E29
S1130CB02AE030E025C0932D997FB92E8F36C1F0FC
S1130CC018F4883579F0B5C0803719F0883721F0E9
S1130CD0B0C0E92FE061BE2EB4FE0DC0FB2DF46060
S1130CE0BF2E09C034FE0AC0292F2660B22E06C0CA
S1130CF028E030E005C020E130E002C020E132E02D
S1130D00F801B7FE07C060817181828193810C5F15
S1130D101F4F06C06081718180E090E00E5F1F4F1D
S1130D20A3010E94A709882E8618FB2DFF773F2E6A
S1130D3036FE0DC0232D2E7FA22E891458F434FEC6
S1130D400BC032FC09C0832D8E7EA82E05C0B82CA2
S1130D50A32C03C0B82C01C0B92CA4FE0FC0FE0103
S1130D60E80DF11D8081803321F49A2D997EA92EFE
S1130D7009C0A2FE06C0B394B39404C08A2D867839
S1130D8009F0B394A3FC11C0A0FE06C0B21488F409
S1130D90280C922C9B180EC0B21460F4B60180E2A9
S1130DA090E00E946B09B394F7CFB21418F42B1897
S1130DB002C0982C212CA4FE10C0B60180E390E060
S1130DC00E946B09A2FE17C0A1FC03C088E790E053
S1130DD002C088E590E0B6010CC08A2D867859F0EF
S1130DE0A1FE02C08BE201C080E2A7FC8DE2B60145
S1130DF090E00E946B09891438F4B60180E390E016
S1130E000E946B099A94F7CF8A94F301E80DF11DBF
S1130E108081B60190E00E946B098110F5CF2220F9
S1130E2009F442CEB60180E290E00E946B092A9454
S1130E30F6CFF6018681978102C08FEF9FEF2B9644
S1130E40E2E10C94210AA9E0B0E0E9E2F7E00C94B5
S1130E500B0A6A01122FB02E2BE3201720F0FF2477
S1130E60F394F00E02C02CE3F22E0F2D27E0AE0116
S1130E704F5F5F4F0E947D08BC014981842F8970B8
S1130E80813031F0E1FC06C0E0FE06C090E205C00E
S1130E909DE203C09BE201C090E05E2D507143FFD0
S1130EA03CC0911102C083E001C084E0811718F4B2
S1130EB0212F281B01C020E051110BC0F601822F05
S1130EC030E2882319F031938150FBCFC20ED11C3C
S1130ED020E0992329F0D6019C93F60131966F0105
S1130EE0C6010396E2FE0AC03EE4D6013C9341E407
S1130EF011964C93119712963C9306C03EE6F60168
S1130F00308341E641833283FC01322F40E23323B4
S1130F1009F442C041933150FACF42FF44C09111C9
S1130F2002C083E001C084E0811718F4212F281B3C
S1130F3001C020E051110BC0F601822F30E288235A
S1130F4019F031938150FBCFC20ED11C20E09923BC
S1130F5029F0D6019C93F60131966F01C6010396E0
S1130F60E2FE0BC039E4D6013C933EE411963C9377
S1130F70119736E412963C9307C039E6F6013083A4
S1130F803EE6318336E63283FC01322F40E23323DE
S1130F9019F041933150FBCFFC01E20FF11D108297
S1130FA08EEF9FEFA6C021E030E0911102C020E057
S1130FB030E0161617061CF4FB01319602C0E1E07E
S1130FC0F0E02E0F3F1FBB2021F0EB2DF0E0319617
S1130FD002C0E0E0F0E02E0F3F1FE12FF0E02E17FB
S1130FE03F071CF4121B212F01C020E08E2D8871B5
S1130FF059F4F601822F30E2882319F0319381509D
S1131000FBCFC20ED11C20E0992329F0D6019C937A
S1131010F60131966F0151110BC0F601822F90E356
S1131020882319F091938150FBCFC20ED11C20E08C
S11310300F2D060F9A81342F307144FF03C0913372
S113104009F40150101624F4093018F008E001C026
S113105001E0AB0177FF02C040E050E0FB01E41B7C
S1131060F50BA1E0B0E0AC0FBD1FEA0FFB1F8EE251
S1131070A82E4B01801A91080B2D10E011950195B3
S113108011094F3FBFEF5B0721F4D601AC921196D3
S11310906D01641775072CF08416950614F481818C
S11310A001C080E3415051093196D60111967D016A
S11310B04017510724F0D6018C936701E2CF6417DF
S11310C0750739F4963320F4953319F4311101C0BE
S11310D081E3F6018083F701822F90E2882319F0DF
S11310E091938150FBCFF701E20FF11D108280E054
S11310F090E02996ECE00C94270A283008F027E0C9
S11311003327DA01990F311D87FD9160009661053F
S1131110710539F432602E5F3D9330E32A95E1F78F
S113112008959F3F30F080387105610509F03C5FF8
S11311303C5F3D93913008F08068911DDF93CF931D
S11311401F930F93FF92EF92192F987F9695E92F93
S113115096959695E90FFF27E255FF4F9927332778
S1131160EE24FF24A701E70105900894079428F4CE
S1131170360FE71EF81E491F511D660F771F881F83
S1131180991F0694A1F70590079428F4E70EF81E1A
S1131190491F561FC11D770F881F991F661F06948C
S11311A0A1F70590079428F4F80E491F561FC71F8E
S11311B0D11D880F991F661F771F0694A1F705900C
S11311C0079420F4490F561FC71FD81F990F661F95
S11311D0771F881F0694A9F784911095177041F022
S11311E0D695C79557954795F794E7941A95C1F7FF
S11311F0E4E5F0E068941590159135916591959129
S113120005907FE27395E118F10A430B560BC90B65
S1131210D009C0F7E10CF11E431F561FC91FD01D92
S11312207EF4703311F48A95E6CFE894015030F0DF
S1131230080F0AF40027021708F4202F2395022F21
S11312407A3328F079E37D932A95E9F710C07D93EA
S11312502A9589F606949795679537951795179467
S1131260E118F10A430B560BC90BD00998F02395EA
S11312707E9173957A3308F070E37C932013B8F76A
S11312807E9170617D9330F0839571E37D9370E37B
S11312902A95E1F71124EF90FF900F911F91CF91C0
S11312A0DF91992787FD90950895FC010590615081
S11312B070400110D8F7809590958E0F9F1F089568
S11312C0FC016150704001900110D8F78095909511
S11312D08E0F9F1F08950F931F93CF93DF93FB01EE
S11312E0238121FD03C08FEF9FEF2CC022FF16C086
S11312F046815781248135814217530744F4A081E4
S1131300B1819D012F5F3F4F318320838C932681D0
S113131037812F5F3F4F3783268314C08B01EC0145
S1131320FB010084F185E02D0995892BE1F6D801B4
S113133016968D919C911797019617969C938E9370
S11313401697CE01DF91CF911F910F910895FA0165
S1131350AA27283051F1203181F1E8946F936E7FF0
S11313606E5F7F4F8F4F9F4FAF4FB1E03ED0B4E0E1
S11313703CD0670F781F891F9A1FA11D680F791F22
S11313808A1F911DA11D6A0F711D811D911DA11D33
S113139020D009F468943F912AE0269F1124301943
S11313A0305D3193DEF6CF010895462F4770405DDE
S11313B04193B3E00FD0C9F7F6CF462F4F70405D8D
S11313C04A3318F0495D31FD4052419302D0A9F7E8
S11313D0EACFB4E0A6959795879577956795BA95E2
S11313E0C9F700976105710508959B01AC010A2EA8
S11313F006945795479537952795BA95C9F7620F7F
S1131400731F841F951FA01D08952F923F924F9222
S11314105F926F927F928F929F92AF92BF92CF9280
S1131420DF92EF92FF920F931F93CF93DF93CDB789
S1131430DEB7CA1BDB0B0FB6F894DEBF0FBECDBF01
S113144009942A88398848885F846E847D848C84D2
S11314509B84AA84B984C884DF80EE80FD800C81DB
S11314601B81AA81B981CE0FD11D0FB6F894DEBFBE
S10F14700FBECDBFED010895F894FFCF2E
S113147C0000000200000000C60000000000204B29
S113148C4F686D202020200020566F6C7473202030
S113149C202000204C7578000D00414443303A2044
S11314AC00414443313A2000414443323A20004144
S11314BC4443333A20004E616A7769656B737A61F1
S11314CC20776172746F73633A2000256400537241
S11314DC65646E6961207A20706F6D6961726F77D3
S10714EC3A2000009E
S9030000FC
